{
  "contractName": "CastYourVote",
  "abi": [
    {
      "constant": true,
      "inputs": [
        {
          "name": "",
          "type": "uint256"
        }
      ],
      "name": "userMatchRecordArray",
      "outputs": [
        {
          "name": "publicID",
          "type": "string"
        },
        {
          "name": "numOfMatchPlayed",
          "type": "uint256"
        }
      ],
      "payable": false,
      "stateMutability": "view",
      "type": "function"
    },
    {
      "constant": true,
      "inputs": [
        {
          "name": "",
          "type": "uint256"
        }
      ],
      "name": "candidateList",
      "outputs": [
        {
          "name": "",
          "type": "string"
        }
      ],
      "payable": false,
      "stateMutability": "view",
      "type": "function"
    },
    {
      "constant": true,
      "inputs": [
        {
          "name": "",
          "type": "uint256"
        }
      ],
      "name": "matchArray",
      "outputs": [
        {
          "name": "totalVote",
          "type": "uint256"
        },
        {
          "name": "totalAmount",
          "type": "uint256"
        },
        {
          "name": "winnerValue",
          "type": "uint256"
        }
      ],
      "payable": false,
      "stateMutability": "view",
      "type": "function"
    },
    {
      "constant": true,
      "inputs": [
        {
          "name": "",
          "type": "uint256"
        }
      ],
      "name": "registeredUser",
      "outputs": [
        {
          "name": "",
          "type": "string"
        }
      ],
      "payable": false,
      "stateMutability": "view",
      "type": "function"
    },
    {
      "inputs": [
        {
          "name": "_subject",
          "type": "string"
        }
      ],
      "payable": false,
      "stateMutability": "nonpayable",
      "type": "constructor"
    },
    {
      "constant": false,
      "inputs": [
        {
          "name": "pubID",
          "type": "string"
        },
        {
          "name": "priID",
          "type": "string"
        }
      ],
      "name": "newRegistration",
      "outputs": [],
      "payable": false,
      "stateMutability": "nonpayable",
      "type": "function"
    },
    {
      "constant": true,
      "inputs": [
        {
          "name": "_candidate",
          "type": "string"
        }
      ],
      "name": "userExist",
      "outputs": [
        {
          "name": "",
          "type": "bool"
        }
      ],
      "payable": false,
      "stateMutability": "view",
      "type": "function"
    },
    {
      "constant": true,
      "inputs": [
        {
          "name": "admin",
          "type": "string"
        }
      ],
      "name": "checkingAdmin",
      "outputs": [
        {
          "name": "",
          "type": "bool"
        }
      ],
      "payable": false,
      "stateMutability": "view",
      "type": "function"
    },
    {
      "constant": false,
      "inputs": [
        {
          "name": "pubID",
          "type": "string"
        },
        {
          "name": "amount",
          "type": "uint256"
        }
      ],
      "name": "amountAdd",
      "outputs": [],
      "payable": false,
      "stateMutability": "nonpayable",
      "type": "function"
    },
    {
      "constant": true,
      "inputs": [
        {
          "name": "pubID",
          "type": "string"
        },
        {
          "name": "priID",
          "type": "string"
        },
        {
          "name": "amount",
          "type": "uint256"
        }
      ],
      "name": "checkPubPriIDAmount",
      "outputs": [
        {
          "name": "",
          "type": "bool"
        }
      ],
      "payable": false,
      "stateMutability": "view",
      "type": "function"
    },
    {
      "constant": true,
      "inputs": [
        {
          "name": "amount",
          "type": "uint256"
        }
      ],
      "name": "minimumBetCheck",
      "outputs": [
        {
          "name": "",
          "type": "bool"
        }
      ],
      "payable": false,
      "stateMutability": "view",
      "type": "function"
    },
    {
      "constant": false,
      "inputs": [],
      "name": "addNewMatch",
      "outputs": [],
      "payable": false,
      "stateMutability": "nonpayable",
      "type": "function"
    },
    {
      "constant": true,
      "inputs": [
        {
          "name": "pubID",
          "type": "string"
        }
      ],
      "name": "checkingVotedOrNot",
      "outputs": [
        {
          "name": "",
          "type": "bool"
        }
      ],
      "payable": false,
      "stateMutability": "view",
      "type": "function"
    },
    {
      "constant": false,
      "inputs": [
        {
          "name": "pubID",
          "type": "string"
        },
        {
          "name": "amount",
          "type": "uint256"
        },
        {
          "name": "selectedValue",
          "type": "uint256"
        }
      ],
      "name": "makingVoteForSelectedIndex",
      "outputs": [],
      "payable": false,
      "stateMutability": "nonpayable",
      "type": "function"
    },
    {
      "constant": false,
      "inputs": [],
      "name": "declareWinner",
      "outputs": [],
      "payable": false,
      "stateMutability": "nonpayable",
      "type": "function"
    },
    {
      "constant": false,
      "inputs": [
        {
          "name": "winnerIndex",
          "type": "uint256"
        },
        {
          "name": "winningAmount",
          "type": "uint256"
        }
      ],
      "name": "transferWinningAmount",
      "outputs": [],
      "payable": false,
      "stateMutability": "nonpayable",
      "type": "function"
    },
    {
      "constant": true,
      "inputs": [],
      "name": "selectingWinner",
      "outputs": [
        {
          "name": "index",
          "type": "uint256"
        }
      ],
      "payable": false,
      "stateMutability": "view",
      "type": "function"
    },
    {
      "constant": true,
      "inputs": [
        {
          "name": "pubID",
          "type": "string"
        }
      ],
      "name": "userBalanceCheck",
      "outputs": [
        {
          "name": "val",
          "type": "uint256"
        }
      ],
      "payable": false,
      "stateMutability": "view",
      "type": "function"
    },
    {
      "constant": true,
      "inputs": [],
      "name": "currentMatchNumber",
      "outputs": [
        {
          "name": "num",
          "type": "uint256"
        }
      ],
      "payable": false,
      "stateMutability": "view",
      "type": "function"
    },
    {
      "constant": true,
      "inputs": [],
      "name": "currentMatchRemainVote",
      "outputs": [
        {
          "name": "rVote",
          "type": "uint256"
        }
      ],
      "payable": false,
      "stateMutability": "view",
      "type": "function"
    },
    {
      "constant": true,
      "inputs": [],
      "name": "previousMatchAmount",
      "outputs": [
        {
          "name": "",
          "type": "uint256"
        }
      ],
      "payable": false,
      "stateMutability": "view",
      "type": "function"
    },
    {
      "constant": true,
      "inputs": [],
      "name": "previousMatchWinner",
      "outputs": [
        {
          "name": "",
          "type": "uint256"
        }
      ],
      "payable": false,
      "stateMutability": "view",
      "type": "function"
    },
    {
      "constant": false,
      "inputs": [
        {
          "name": "pubID",
          "type": "string"
        }
      ],
      "name": "addNewuserMatchRecord",
      "outputs": [],
      "payable": false,
      "stateMutability": "nonpayable",
      "type": "function"
    },
    {
      "constant": true,
      "inputs": [
        {
          "name": "pubID",
          "type": "string"
        }
      ],
      "name": "findingNumOfMatchUserPlayed",
      "outputs": [
        {
          "name": "num",
          "type": "uint256"
        }
      ],
      "payable": false,
      "stateMutability": "view",
      "type": "function"
    }
  ],
  "bytecode": "0x606060405234156200001057600080fd5b60405162002b7638038062002b76833981016040528080518201919050506040805190810160405280600881526020017f766b6d3134323535000000000000000000000000000000000000000000000000815250600690805190602001906200007b929190620001ba565b50600a6008819055506298967f6007819055506003600a81905550620000b4620001146401000000000262000c6c176401000000009004565b60008054806001018281620000ca919062000241565b916000526020600020900160008390919091509080519060200190620000f2929190620001ba565b505080600290805190602001906200010c929190620001ba565b5050620004ec565b6200011e62000270565b600b80549050600981905550600081602001818152505060008160000181815250506000816040018181525050600b8054806001018281620001619190620002a1565b916000526020600020906007020160008390919091506000820151816000015560208201518160010155604082015181600201556060820151816003019080519060200190620001b3929190620002d6565b5050505050565b828054600181600116156101000203166002900490600052602060002090601f016020900481019282601f10620001fd57805160ff19168380011785556200022e565b828001600101855582156200022e579182015b828111156200022d57825182559160200191906001019062000210565b5b5090506200023d91906200033d565b5090565b8154818355818115116200026b578183600052602060002091820191016200026a919062000365565b5b505050565b6080604051908101604052806000815260200160008152602001600081526020016200029b62000396565b81525090565b815481835581811511620002d157600702816007028360005260206000209182019101620002d09190620003aa565b5b505050565b8280548282559060005260206000209081019282156200032a579160200282015b828111156200032957825182908051906020019062000318929190620003f6565b5091602001919060010190620002f7565b5b50905062000339919062000365565b5090565b6200036291905b808211156200035e57600081600090555060010162000344565b5090565b90565b6200039391905b808211156200038f57600081816200038591906200047d565b506001016200036c565b5090565b90565b602060405190810160405280600081525090565b620003f391905b80821115620003ef5760008082016000905560018201600090556002820160009055600382016000620003e59190620004c9565b50600701620003b1565b5090565b90565b828054600181600116156101000203166002900490600052602060002090601f016020900481019282601f106200043957805160ff19168380011785556200046a565b828001600101855582156200046a579182015b82811115620004695782518255916020019190600101906200044c565b5b5090506200047991906200033d565b5090565b50805460018160011615610100020316600290046000825580601f10620004a55750620004c6565b601f016020900490600052602060002090810190620004c591906200033d565b5b50565b5080546000825590600052602060002090810190620004e9919062000365565b50565b61267a80620004fc6000396000f300606060405260043610610133576000357c0100000000000000000000000000000000000000000000000000000000900463ffffffff16806302105cd81461013857806314034bd2146101d85780631b81e2d2146101ed5780631e0ba6ae14610262578063242ba6e5146102775780633084ba611461031a57806334fccd20146103435780635eb87da9146103a9578063609774ef146103d25780636af25d6d1461044757806384bd058d1461047357806392831888146104e4578063b13c744b14610553578063b19c6558146105ef578063b5fa220814610634578063bb9fbf6d146106a5578063bfa6ceab14610766578063d5260d09146107c3578063d7cc3320146107ec578063dff5c01a14610815578063e60f495514610850578063e711c3e414610879578063f8c25703146108ee575b600080fd5b341561014357600080fd5b6101d6600480803590602001908201803590602001908080601f0160208091040260200160405190810160405280939291908181526020018383808284378201915050505050509190803590602001908201803590602001908080601f0160208091040260200160405190810160405280939291908181526020018383808284378201915050505050509190505061098a565b005b34156101e357600080fd5b6101eb610ad4565b005b34156101f857600080fd5b610248600480803590602001908201803590602001908080601f01602080910402602001604051908101604052809392919081815260200183838082843782019150505050505091905050610b43565b604051808215151515815260200191505060405180910390f35b341561026d57600080fd5b610275610c6c565b005b341561028257600080fd5b6102986004808035906020019091905050610d0c565b6040518080602001838152602001828103825284818151815260200191508051906020019080838360005b838110156102de5780820151818401526020810190506102c3565b50505050905090810190601f16801561030b5780820380516001836020036101000a031916815260200191505b50935050505060405180910390f35b341561032557600080fd5b61032d610dd7565b6040518082815260200191505060405180910390f35b341561034e57600080fd5b6103a7600480803590602001908201803590602001908080601f01602080910402602001604051908101604052809392919081815260200183838082843782019150505050505091908035906020019091905050610de4565b005b34156103b457600080fd5b6103bc610e71565b6040518082815260200191505060405180910390f35b34156103dd57600080fd5b61042d600480803590602001908201803590602001908080601f01602080910402602001604051908101604052809392919081815260200183838082843782019150505050505091905050610ea3565b604051808215151515815260200191505060405180910390f35b341561045257600080fd5b6104716004808035906020019091908035906020019091905050610ff4565b005b341561047e57600080fd5b6104ce600480803590602001908201803590602001908080601f01602080910402602001604051908101604052809392919081815260200183838082843782019150505050505091905050611376565b6040518082815260200191505060405180910390f35b34156104ef57600080fd5b610551600480803590602001908201803590602001908080601f016020809104026020016040519081016040528093929190818152602001838380828437820191505050505050919080359060200190919080359060200190919050506114c0565b005b341561055e57600080fd5b610574600480803590602001909190505061195b565b6040518080602001828103825283818151815260200191508051906020019080838360005b838110156105b4578082015181840152602081019050610599565b50505050905090810190601f1680156105e15780820380516001836020036101000a031916815260200191505b509250505060405180910390f35b34156105fa57600080fd5b6106106004808035906020019091905050611a17565b60405180848152602001838152602001828152602001935050505060405180910390f35b341561063f57600080fd5b61068f600480803590602001908201803590602001908080601f01602080910402602001604051908101604052809392919081815260200183838082843782019150505050505091905050611a50565b6040518082815260200191505060405180910390f35b34156106b057600080fd5b61074c600480803590602001908201803590602001908080601f0160208091040260200160405190810160405280939291908181526020018383808284378201915050505050509190803590602001908201803590602001908080601f01602080910402602001604051908101604052809392919081815260200183838082843782019150505050505091908035906020019091905050611ae5565b604051808215151515815260200191505060405180910390f35b341561077157600080fd5b6107c1600480803590602001908201803590602001908080601f01602080910402602001604051908101604052809392919081815260200183838082843782019150505050505091905050611dd4565b005b34156107ce57600080fd5b6107d6611ebc565b6040518082815260200191505060405180910390f35b34156107f757600080fd5b6107ff611eee565b6040518082815260200191505060405180910390f35b341561082057600080fd5b6108366004808035906020019091905050611f24565b604051808215151515815260200191505060405180910390f35b341561085b57600080fd5b610863611f44565b6040518082815260200191505060405180910390f35b341561088457600080fd5b6108d4600480803590602001908201803590602001908080601f01602080910402602001604051908101604052809392919081815260200183838082843782019150505050505091905050611fcc565b604051808215151515815260200191505060405180910390f35b34156108f957600080fd5b61090f60048080359060200190919050506120bc565b6040518080602001828103825283818151815260200191508051906020019080838360005b8381101561094f578082015181840152602081019050610934565b50505050905090810190601f16801561097c5780820380516001836020036101000a031916815260200191505b509250505060405180910390f35b61099382610b43565b1515610ad057600380548060010182816109ad9190612178565b9160005260206000209001600084909190915090805190602001906109d39291906121a4565b5050806004836040518082805190602001908083835b602083101515610a0e57805182526020820191506020810190506020830392506109e9565b6001836020036101000a03801982511681845116808217855250505050505090500191505090815260200160405180910390209080519060200190610a549291906121a4565b5060006005836040518082805190602001908083835b602083101515610a8f5780518252602082019150602081019050602083039250610a6a565b6001836020036101000a038019825116818451168082178552505050505050905001915050908152602001604051809103902081905550610acf82611dd4565b5b5050565b6000806000610ae1611f44565b9250600b600954815481101515610af457fe5b90600052602060002090600702019150828260020181905550816006016000848152602001908152602001600020548260010154811515610b3157fe5b049050610b3e8382610ff4565b505050565b600080600090505b600380549050811015610c6157826040518082805190602001908083835b602083101515610b8e5780518252602082019150602081019050602083039250610b69565b6001836020036101000a038019825116818451168082178552505050505050905001915050604051809103902060001916600382815481101515610bce57fe5b90600052602060002090016040518082805460018160011615610100020316600290048015610c345780601f10610c12576101008083540402835291820191610c34565b820191906000526020600020905b815481529060010190602001808311610c20575b50509150506040518091039020600019161415610c545760019150610c66565b8080600101915050610b4b565b600091505b50919050565b610c74612224565b600b80549050600981905550600081602001818152505060008160000181815250506000816040018181525050600b8054806001018281610cb59190612253565b916000526020600020906007020160008390919091506000820151816000015560208201518160010155604082015181600201556060820151816003019080519060200190610d05929190612285565b5050505050565b600c81815481101515610d1b57fe5b9060005260206000209060060201600091509050806000018054600181600116156101000203166002900480601f016020809104026020016040519081016040528092919081815260200182805460018160011615610100020316600290048015610dc75780601f10610d9c57610100808354040283529160200191610dc7565b820191906000526020600020905b815481529060010190602001808311610daa57829003601f168201915b5050505050908060010154905082565b6000600b80549050905090565b806005836040518082805190602001908083835b602083101515610e1d5780518252602082019150602081019050602083039250610df8565b6001836020036101000a038019825116818451168082178552505050505050905001915050908152602001604051809103902060008282540192505081905550806007600082825403925050819055505050565b600080600b600160095403815481101515610e8857fe5b90600052602060002090600702019050806001015491505090565b6000806000600b600954815481101515610eb957fe5b90600052602060002090600702019150600090505b8160030180549050811015610fe857836040518082805190602001908083835b602083101515610f135780518252602082019150602081019050602083039250610eee565b6001836020036101000a0380198251168184511680821785525050505050509050019150506040518091039020600019168260030182815481101515610f5557fe5b90600052602060002090016040518082805460018160011615610100020316600290048015610fbb5780601f10610f99576101008083540402835291820191610fbb565b820191906000526020600020905b815481529060010190602001808311610fa7575b50509150506040518091039020600019161415610fdb5760019250610fed565b8080600101915050610ece565b600092505b5050919050565b600080610fff6122e5565b600080600b60095481548110151561101357fe5b90600052602060002090600702019450600093505b846003018054905084101561136d57846003018481548110151561104857fe5b90600052602060002090018054600181600116156101000203166002900480601f0160208091040260200160405190810160405280929190818152602001828054600181600116156101000203166002900480156110e75780601f106110bc576101008083540402835291602001916110e7565b820191906000526020600020905b8154815290600101906020018083116110ca57829003601f168201915b505050505092508685600501846040518082805190602001908083835b6020831015156111295780518252602082019150602081019050602083039250611104565b6001836020036101000a038019825116818451168082178552505050505050905001915050908152602001604051809103902054141561136057856005846040518082805190602001908083835b60208310151561119c5780518252602082019150602081019050602083039250611177565b6001836020036101000a038019825116818451168082178552505050505050905001915050908152602001604051809103902060008282540192505081905550600091505b600c8054905082101561135f57826040518082805190602001908083835b60208310151561122457805182526020820191506020810190506020830392506111ff565b6001836020036101000a038019825116818451168082178552505050505050905001915050604051809103902060001916600c8381548110151561126457fe5b906000526020600020906006020160000160405180828054600181600116156101000203166002900480156112d05780601f106112ae5761010080835404028352918201916112d0565b820191906000526020600020905b8154815290600101906020018083116112bc575b5050915050604051809103902060001916141561135257600c828154811015156112f657fe5b906000526020600020906006020160050180549050905085600c8381548110151561131d57fe5b90600052602060002090600602016005016001830381548110151561133e57fe5b90600052602060002090018190555061135f565b81806001019250506111e1565b5b8380600101945050611028565b50505050505050565b600080600090505b600c805490508110156114b957826040518082805190602001908083835b6020831015156113c1578051825260208201915060208101905060208303925061139c565b6001836020036101000a038019825116818451168082178552505050505050905001915050604051809103902060001916600c8281548110151561140157fe5b9060005260206000209060060201600001604051808280546001816001161561010002031660029004801561146d5780601f1061144b57610100808354040283529182019161146d565b820191906000526020600020905b815481529060010190602001808311611459575b505091505060405180910390206000191614156114ac57600c8181548110151561149357fe5b90600052602060002090600602016001015491506114ba565b808060010191505061137e565b5b50919050565b600080600b6009548154811015156114d457fe5b906000526020600020906007020191506001826000016000828254019250508190555083826001016000828254019250508190555081600301805480600101828161151f9190612178565b9160005260206000209001600087909190915090805190602001906115459291906121a4565b50508282600501866040518082805190602001908083835b602083101515611582578051825260208201915060208101905060208303925061155d565b6001836020036101000a0380198251168184511680821785525050505050509050019150509081526020016040518091039020819055508382600401866040518082805190602001908083835b6020831015156115f457805182526020820191506020810190506020830392506115cf565b6001836020036101000a038019825116818451168082178552505050505050905001915050908152602001604051809103902081905550600182600601600085815260200190815260200160002060008282540192505081905550600090505b600c805490508110156118bc57846040518082805190602001908083835b6020831015156116975780518252602082019150602081019050602083039250611672565b6001836020036101000a038019825116818451168082178552505050505050905001915050604051809103902060001916600c828154811015156116d757fe5b906000526020600020906006020160000160405180828054600181600116156101000203166002900480156117435780601f10611721576101008083540402835291820191611743565b820191906000526020600020905b81548152906001019060200180831161172f575b505091505060405180910390206000191614156118af576001600c8281548110151561176b57fe5b906000526020600020906006020160010160008282540192505081905550600c8181548110151561179857fe5b906000526020600020906006020160020180548060010182816117bb91906122f9565b9160005260206000209001600060016009540190919091505550600c818154811015156117e457fe5b9060005260206000209060060201600301805480600101828161180791906122f9565b916000526020600020900160008690919091505550600c8181548110151561182b57fe5b9060005260206000209060060201600401805480600101828161184e91906122f9565b916000526020600020900160008590919091505550600c8181548110151561187257fe5b9060005260206000209060060201600501805480600101828161189591906122f9565b9160005260206000209001600080909190915055506118bc565b8080600101915050611654565b836005866040518082805190602001908083835b6020831015156118f557805182526020820191506020810190506020830392506118d0565b6001836020036101000a038019825116818451168082178552505050505050905001915050908152602001604051809103902060008282540392505081905550600a54826000015414156119545761194b610ad4565b611953610c6c565b5b5050505050565b60008181548110151561196a57fe5b90600052602060002090016000915090508054600181600116156101000203166002900480601f016020809104026020016040519081016040528092919081815260200182805460018160011615610100020316600290048015611a0f5780601f106119e457610100808354040283529160200191611a0f565b820191906000526020600020905b8154815290600101906020018083116119f257829003601f168201915b505050505081565b600b81815481101515611a2657fe5b90600052602060002090600702016000915090508060000154908060010154908060020154905083565b6000611a5b82610b43565b15611ad3576005826040518082805190602001908083835b602083101515611a985780518252602082019150602081019050602083039250611a73565b6001836020036101000a0380198251168184511680821785525050505050509050019150509081526020016040518091039020549050611ae0565b68055aa543560689ceb490505b919050565b600080600090505b600380549050811015611dc757846040518082805190602001908083835b602083101515611b305780518252602082019150602081019050602083039250611b0b565b6001836020036101000a038019825116818451168082178552505050505050905001915050604051809103902060001916600382815481101515611b7057fe5b90600052602060002090016040518082805460018160011615610100020316600290048015611bd65780601f10611bb4576101008083540402835291820191611bd6565b820191906000526020600020905b815481529060010190602001808311611bc2575b50509150506040518091039020600019161415611dba57836040518082805190602001908083835b602083101515611c235780518252602082019150602081019050602083039250611bfe565b6001836020036101000a0380198251168184511680821785525050505050509050019150506040518091039020600019166004866040518082805190602001908083835b602083101515611c8c5780518252602082019150602081019050602083039250611c67565b6001836020036101000a03801982511681845116808217855250505050505090500191505090815260200160405180910390206040518082805460018160011615610100020316600290048015611d1a5780601f10611cf8576101008083540402835291820191611d1a565b820191906000526020600020905b815481529060010190602001808311611d06575b5050915050604051809103902060001916148015611da35750826005866040518082805190602001908083835b602083101515611d6c5780518252602082019150602081019050602083039250611d47565b6001836020036101000a03801982511681845116808217855250505050505090500191505090815260200160405180910390205410155b15611db15760019150611dcc565b60009150611dcc565b8080600101915050611aed565b600091505b509392505050565b611ddc612325565b8181600001819052506000816020018181525050600c8054806001018281611e04919061237a565b916000526020600020906006020160008390919091506000820151816000019080519060200190611e369291906123ac565b50602082015181600101556040820151816002019080519060200190611e5d92919061242c565b506060820151816003019080519060200190611e7a92919061242c565b506080820151816004019080519060200190611e9792919061242c565b5060a0820151816005019080519060200190611eb492919061242c565b505050505050565b600080600b600160095403815481101515611ed357fe5b90600052602060002090600702019050806002015491505090565b600080600b600954815481101515611f0257fe5b906000526020600020906007020190508060000154600a540391508191505090565b600060085482101515611f3a5760019050611f3f565b600090505b919050565b600080600080600b600954815481101515611f5b57fe5b9060005260206000209060070201925060009150600090505b600a811015611fc35781836006016000838152602001908152602001600020541115611fb6578260060160008281526020019081526020016000205491508093505b8080600101915050611f74565b83935050505090565b60006006604051808280546001816001161561010002031660029004801561202b5780601f1061200957610100808354040283529182019161202b565b820191906000526020600020905b815481529060010190602001808311612017575b5050915050604051809103902060001916826040518082805190602001908083835b602083101515612072578051825260208201915060208101905060208303925061204d565b6001836020036101000a03801982511681845116808217855250505050505090500191505060405180910390206000191614156120b257600190506120b7565b600090505b919050565b6003818154811015156120cb57fe5b90600052602060002090016000915090508054600181600116156101000203166002900480601f0160208091040260200160405190810160405280929190818152602001828054600181600116156101000203166002900480156121705780601f1061214557610100808354040283529160200191612170565b820191906000526020600020905b81548152906001019060200180831161215357829003601f168201915b505050505081565b81548183558181151161219f5781836000526020600020918201910161219e9190612479565b5b505050565b828054600181600116156101000203166002900490600052602060002090601f016020900481019282601f106121e557805160ff1916838001178555612213565b82800160010185558215612213579182015b828111156122125782518255916020019190600101906121f7565b5b50905061222091906124a5565b5090565b60806040519081016040528060008152602001600081526020016000815260200161224d6124ca565b81525090565b8154818355818115116122805760070281600702836000526020600020918201910161227f91906124de565b5b505050565b8280548282559060005260206000209081019282156122d4579160200282015b828111156122d35782518290805190602001906122c39291906123ac565b50916020019190600101906122a5565b5b5090506122e19190612479565b5090565b602060405190810160405280600081525090565b8154818355818115116123205781836000526020600020918201910161231f91906124a5565b5b505050565b60c060405190810160405280612339612525565b81526020016000815260200161234d612539565b815260200161235a612539565b8152602001612367612539565b8152602001612374612539565b81525090565b8154818355818115116123a7576006028160060283600052602060002091820191016123a6919061254d565b5b505050565b828054600181600116156101000203166002900490600052602060002090601f016020900481019282601f106123ed57805160ff191683800117855561241b565b8280016001018555821561241b579182015b8281111561241a5782518255916020019190600101906123ff565b5b50905061242891906124a5565b5090565b828054828255906000526020600020908101928215612468579160200282015b8281111561246757825182559160200191906001019061244c565b5b50905061247591906124a5565b5090565b6124a291905b8082111561249e576000818161249591906125c4565b5060010161247f565b5090565b90565b6124c791905b808211156124c35760008160009055506001016124ab565b5090565b90565b602060405190810160405280600081525090565b61252291905b8082111561251e5760008082016000905560018201600090556002820160009055600382016000612515919061260c565b506007016124e4565b5090565b90565b602060405190810160405280600081525090565b602060405190810160405280600081525090565b6125c191905b808211156125bd576000808201600061256c91906125c4565b6001820160009055600282016000612584919061262d565b600382016000612594919061262d565b6004820160006125a4919061262d565b6005820160006125b4919061262d565b50600601612553565b5090565b90565b50805460018160011615610100020316600290046000825580601f106125ea5750612609565b601f01602090049060005260206000209081019061260891906124a5565b5b50565b508054600082559060005260206000209081019061262a9190612479565b50565b508054600082559060005260206000209081019061264b91906124a5565b505600a165627a7a723058202fedf74499772a65106588b931ee265640c5f4aab8c9d68613b12909051960c80029",
  "source": "pragma solidity ^0.4.21; \r\n\r\ncontract CastYourVote\r\n{\r\n    \r\n    string[] public candidateList;\r\n    mapping(string => uint256) votesRecieved;\r\n    string subject;\r\n    //\r\n\tstruct currentMatchRecord{\r\n\t\tuint256 totalVote;\r\n\t\tuint256 totalAmount;\r\n\t\tuint256 winnerValue;\r\n\t\tstring[] votedUser;\r\n\t\tmapping(string => uint256) userAmount;\r\n\t\tmapping(string => uint256) userIndex;\r\n\t\tmapping(uint256 => uint256 ) indexVoteCount;   \r\n\t}\r\n\t\r\n\tstruct userMatchRecord{\r\n\t\tstring publicID;\r\n\t\tuint256 numOfMatchPlayed;\r\n\t\tuint256[] matchNumber;\r\n\t\tuint256[] amountBet;\r\n\t\tuint256[] selectedIndex;\r\n\t\tuint256[] amountGainLoss;\r\n\t}\r\n\t\r\n\t\r\n\tstring[] public registeredUser;\r\n\tmapping(string => string) userKey;\r\n\tmapping(string => uint256) balance;\r\n\tstring adminKey;\r\n\tuint256 adminMaxAmount;\r\n\tuint256 minimumBetAmount;\r\n\tuint256 currentMatchNum;\r\n\tuint256 maxTotalVote;\r\n\t\r\n\tcurrentMatchRecord[] public matchArray;\r\n\tuserMatchRecord[] public userMatchRecordArray;\r\n    \r\n    function CastYourVote(string _subject)public {\r\n\t\tadminKey=\"vkm14255\";\r\n\t\tminimumBetAmount=10;\r\n\t\tadminMaxAmount = 9999999;             \r\n\t\tmaxTotalVote=3;\t\t\t\t\t\t\t// ----- maximum vote in a match  \r\n\t\taddNewMatch();\r\n\t\t\r\n\t\t\r\n\t\tcandidateList.push(_subject);  \r\n        subject=_subject;\r\n        //emit log(\"subject is: \",subject);\r\n    }\r\n    \r\n    \r\n\t\r\n\t\r\n// for registering user  --------------------------------------------------------------------------------------------->>>>>>>>>>>>>>>>>>>>>>>>>>>>\r\n\r\n\tfunction newRegistration(string pubID, string priID) public{\r\n\t\tif(!userExist(pubID)){\r\n\t\t\tregisteredUser.push(pubID);\r\n\t\t\tuserKey[pubID]=priID;\r\n\t\t\tbalance[pubID]=0;\r\n\t\t\taddNewuserMatchRecord(pubID);\r\n\t\t}\r\n\t} \r\n\t\r\n\t// checking whether registeredUser exist or not\r\n    function userExist(string _candidate) public constant returns(bool){\r\n        for(uint256 i=0;i<registeredUser.length;i++){\r\n            if(keccak256(registeredUser[i])==keccak256(_candidate)){\r\n                return true;\r\n            }\r\n        }\r\n        return false;\r\n    }\r\n\t\r\n// for exchange or transfer money   ---------------------------------------------------------------------------------------->>>>>>>>>>>>>>>>>>>>>>>>>\r\n\r\n\t// checking whether admin entered match or not\r\n    function checkingAdmin(string admin) public constant returns(bool){\r\n        if(keccak256(admin)==keccak256(adminKey)){\r\n            return true;\r\n        }\r\n        return false;\r\n    }\r\n\t\r\n\t// adding money to specified user \r\n\tfunction amountAdd(string pubID,uint256 amount) public {\r\n\t\tbalance[pubID]+=amount;\r\n\t\tadminMaxAmount-=amount;\r\n\t}\r\n\t\r\n// for voting  ------------------------------------------------------------------------------------------------------->>>>>>>>>>>>>>>>>>>>>>>>>>>>>>\r\n\r\n\t// for checking public, private, and balance of pubIDs \r\n\tfunction checkPubPriIDAmount(string pubID,string priID,uint256 amount) public constant returns(bool){\r\n\t\tfor(uint256 i=0;i<registeredUser.length;i++){\r\n            if(keccak256(registeredUser[i])==keccak256(pubID)){\r\n                if(keccak256(userKey[pubID])==keccak256(priID) && balance[pubID]>=amount){\r\n\t\t\t\t\treturn true;\r\n\t\t\t\t}\r\n\t\t\t\telse \r\n\t\t\t\t\treturn false;\r\n            }\r\n        }\r\n        return false;\r\n\t}\r\n\t// for checking, entered minimumBetAmount\r\n\tfunction minimumBetCheck(uint256 amount) public constant returns(bool){\r\n\t\tif(amount >= minimumBetAmount)\r\n\t\t\treturn true;\r\n\t\telse \r\n\t\t\treturn false;\r\n\t}\r\n\r\n\t// function to add match\r\n\tfunction addNewMatch() public {\r\n\t\tcurrentMatchNum = matchArray.length;\r\n\t\tcurrentMatchRecord memory tempMatch;// = currentMatchRecord({totalAmount:0,totalVote:0,votedUser: new string[](0) });\r\n\t\ttempMatch.totalAmount=0;\r\n\t\ttempMatch.totalVote=0;\r\n\t\ttempMatch.winnerValue=0;\r\n\t\tmatchArray.push(tempMatch);\r\n\t}\r\n\t\r\n\t// for checking user voted or not\r\n\tfunction checkingVotedOrNot(string pubID) public constant returns(bool) {\r\n\t\tcurrentMatchRecord storage curMatch = matchArray[currentMatchNum];\r\n\t\tfor(uint256 i=0;i<curMatch.votedUser.length;i++){\r\n\t\t\tif(keccak256(curMatch.votedUser[i])==keccak256(pubID))\r\n\t\t\t\treturn true;\r\n\t\t}\r\n\t\treturn false;\r\n\t}\r\n\t\r\n\t// pubID making Vote For Selected Index\r\n\tfunction makingVoteForSelectedIndex(string pubID,uint256 amount,uint256 selectedValue) public{\r\n\t\tcurrentMatchRecord  storage curMatch= matchArray[currentMatchNum];\r\n\t\tcurMatch.totalVote+=1;\r\n\t\tcurMatch.totalAmount+=amount;\r\n\t\tcurMatch.votedUser.push(pubID);\r\n\t\tcurMatch.userIndex[pubID]=selectedValue;\r\n\t\tcurMatch.userAmount[pubID]=amount;\r\n\t\tcurMatch.indexVoteCount[selectedValue]+=1;\r\n\t\t\r\n\t\t// updating user detail\r\n\t\tfor(uint256 i=0;i<userMatchRecordArray.length;i++){\r\n\t\t\tif( keccak256(userMatchRecordArray[i].publicID) == keccak256(pubID) ){\r\n\t\t\t\tuserMatchRecordArray[i].numOfMatchPlayed+=1;\r\n\t\t\t\tuserMatchRecordArray[i].matchNumber.push(currentMatchNum+1);\r\n\t\t\t\tuserMatchRecordArray[i].amountBet.push(amount);\r\n\t\t\t\tuserMatchRecordArray[i].selectedIndex.push(selectedValue);\r\n\t\t\t\tuserMatchRecordArray[i].amountGainLoss.push(0);\r\n\t\t\t\tbreak;\r\n\t\t\t}\r\n\t\t}\r\n\t\t\r\n\t\tbalance[pubID]-=amount;    // deducting amount from voting user pubID\r\n\t\t// checking for result declaration\r\n\t\tif(curMatch.totalVote==maxTotalVote){\r\n\t\t\tdeclareWinner();\r\n\t\t\taddNewMatch();\r\n\t\t}\r\n\t}\r\n\t\r\n\t// for declaring winner\r\n\tfunction declareWinner() public {\t\t\t\t\t// TODO\r\n\t\t// selecting winner index\r\n\t\tuint256 winnerIndex = selectingWinner();\r\n\t\t\r\n\t\tcurrentMatchRecord  storage curMatch= matchArray[currentMatchNum];\r\n\t\tcurMatch.winnerValue = winnerIndex;\r\n\t\tuint winningAmount = curMatch.totalAmount/curMatch.indexVoteCount[winnerIndex];\r\n\t\t\r\n\t\ttransferWinningAmount(winnerIndex,winningAmount);\r\n\t\t\r\n\t}\r\n\t\r\n\t\r\n\t// transfering winningAmount to winner\r\n\tfunction transferWinningAmount(uint256 winnerIndex,uint256 winningAmount) public {\r\n\t\tcurrentMatchRecord  storage curMatch= matchArray[currentMatchNum];\r\n\t\tfor(uint256 i=0;i<curMatch.votedUser.length;i++){\r\n\t\t\tstring memory user = curMatch.votedUser[i];\r\n\t\t\tif(curMatch.userIndex[user]==winnerIndex){\r\n\t\t\t\tbalance[user]+=winningAmount;\r\n\t\t\t\t\r\n\t\t\t\t// updating user detail\r\n\t\t\t\tfor(uint256 j=0;j<userMatchRecordArray.length;j++){\r\n\t\t\t\t\tif( keccak256(userMatchRecordArray[j].publicID) == keccak256(user) ){\r\n\t\t\t\t\t\tuint256 len = userMatchRecordArray[j].amountGainLoss.length;\r\n\t\t\t\t\t\tuserMatchRecordArray[j].amountGainLoss[len-1]=winningAmount;\r\n\t\t\t\t\t\tbreak;\r\n\t\t\t\t\t}\r\n\t\t\t\t}\r\n\t\t\t\t\r\n\t\t\t}\r\n\t\t}\r\n\t}\r\n\t\r\n\t// selecting winner using higher preference candidate\r\n\tfunction selectingWinner() public constant returns(uint256 index){\r\n\t\t\r\n\t\tcurrentMatchRecord storage curMatch= matchArray[currentMatchNum];\r\n\t\tuint256 mx=0;\r\n\t\tfor(uint256 i=0;i<10;i++){\r\n\t\t\tif(curMatch.indexVoteCount[i] > mx){\r\n\t\t\t\tmx=curMatch.indexVoteCount[i];\r\n\t\t\t\tindex=i;\r\n\t\t\t}\r\n\t\t}\r\n\t\treturn index;\r\n\t}\r\n\t\r\n//---------------------------------------------------------------------------------------------------------------->>>>>>>>>>>>>>>>>>>>>>>>>>>>\r\n\r\n\t//for user balance \r\n\tfunction userBalanceCheck(string pubID) public constant returns(uint256 val){\r\n\t\tif(userExist(pubID))\r\n\t\t\treturn balance[pubID];\r\n\t\telse return 98765421239874473652;\r\n\t}\r\n\t\r\n\t// for returning currentMatchNumber  \r\n\tfunction currentMatchNumber() public constant returns(uint256 num){\r\n\t\treturn matchArray.length;\r\n\t}\r\n\t\r\n\t// for returning remaining votes in current Match\r\n\tfunction currentMatchRemainVote() public constant returns(uint256 rVote){\r\n\t\tcurrentMatchRecord storage curMatch= matchArray[currentMatchNum];\r\n\t\trVote = maxTotalVote - curMatch.totalVote;\r\n\t\treturn rVote;\r\n\t}\r\n\t\r\n\t// for returning previous match total amount\r\n\tfunction previousMatchAmount() public constant returns(uint256){\r\n\t\tcurrentMatchRecord storage curMatch= matchArray[currentMatchNum-1];\r\n\t\treturn curMatch.totalAmount;\r\n\t}\r\n\t\r\n\t// for returning previous match winner\r\n\tfunction previousMatchWinner() public constant returns(uint256){\r\n\t\tcurrentMatchRecord storage curMatch= matchArray[currentMatchNum-1];\r\n\t\treturn curMatch.winnerValue;\r\n\t}\r\n\t\r\n\t\r\n\t\r\n// for User Record ------------------------------------------------------------------------------------------------>>>>>>>>>>>>>>>>>>>>>>>>>>>>>>>>\r\n\t\r\n\t// adding new user Match record\r\n\tfunction addNewuserMatchRecord(string pubID) public {\r\n\t\tuserMatchRecord memory tempRecord;\r\n\t\ttempRecord.publicID = pubID;\r\n\t\ttempRecord.numOfMatchPlayed=0;\r\n\t\tuserMatchRecordArray.push(tempRecord);\r\n\t}\r\n\t\r\n\t// returns number of match played by user \r\n\tfunction findingNumOfMatchUserPlayed(string pubID) public constant returns(uint256 num){\r\n\t\tfor(uint256 i=0;i<userMatchRecordArray.length;i++){\r\n\t\t\tif(keccak256(userMatchRecordArray[i].publicID)==keccak256(pubID)){\r\n\t\t\t\treturn userMatchRecordArray[i].numOfMatchPlayed;\r\n\t\t\t}\r\n\t\t}\r\n\t}\r\n\t\r\n/*\t// returning userMatchRecord for row update\r\n\tfunction findingUserRowRecord(string pubID,uint256 index,uint256 colNum) public constant returns(uint256 val){\r\n\t\tfor(uint256 i=0;i<userMatchRecordArray.length;i++){\r\n\t\t\tif(keccak256(userMatchRecordArray[i].publicID)==keccak256(pubID)){\r\n\t\t\t\tif(colNum==0){\r\n\t\t\t\t\tuserMatchRecordArray[i].matchNumber[index];\r\n\t\t\t\t}\r\n\t\t\t\telse if(colNum==1){\r\n\t\t\t\t\tuserMatchRecordArray[i].amountBet[index];\r\n\t\t\t\t}\r\n\t\t\t\telse if(colNum==2){\r\n\t\t\t\t\tuserMatchRecordArray[i].selectedIndex[index];\r\n\t\t\t\t}\r\n\t\t\t\telse if(colNum==3){\r\n\t\t\t\t\tuserMatchRecordArray[i].amountGainLoss[index];\r\n\t\t\t\t}\r\n\t\t\t\tbreak;\r\n\t\t\t\t\r\n\t\t\t}\r\n\t\t}\r\n\t}\r\n\t\r\n*/\t\r\n\t\r\n\t\r\n\t\r\n\t\r\n\t\r\n\t\r\n\t\r\n}",
  "sourcePath": "C:\\Users\\VIKAS\\Desktop\\votingSample\\contracts\\CastYourVote.sol",
  "compiler": {
    "name": "solc",
    "version": "0.4.21+commit.dfe3193c.Emscripten.clang"
  },
  "schemaVersion": "2.0.0",
  "updatedAt": "2018-05-24T08:55:20.162Z"
}